{
  "_format": "hh-sol-artifact-1",
  "contractName": "ZombieHelper",
  "sourceName": "contracts/ZombieHelper.sol",
  "abi": [
    {
      "anonymous": false,
      "inputs": [
        {
          "indexed": false,
          "internalType": "uint256",
          "name": "zombieId",
          "type": "uint256"
        },
        {
          "indexed": false,
          "internalType": "string",
          "name": "name",
          "type": "string"
        },
        {
          "indexed": false,
          "internalType": "uint256",
          "name": "dna",
          "type": "uint256"
        }
      ],
      "name": "NewZombie",
      "type": "event"
    },
    {
      "anonymous": false,
      "inputs": [
        {
          "indexed": true,
          "internalType": "address",
          "name": "previousOwner",
          "type": "address"
        },
        {
          "indexed": true,
          "internalType": "address",
          "name": "newOwner",
          "type": "address"
        }
      ],
      "name": "OwnershipTransferred",
      "type": "event"
    },
    {
      "inputs": [
        {
          "internalType": "uint256",
          "name": "_zombieId",
          "type": "uint256"
        },
        {
          "internalType": "uint256",
          "name": "_newDna",
          "type": "uint256"
        }
      ],
      "name": "changeDna",
      "outputs": [],
      "stateMutability": "nonpayable",
      "type": "function"
    },
    {
      "inputs": [
        {
          "internalType": "uint256",
          "name": "_zombieId",
          "type": "uint256"
        },
        {
          "internalType": "string",
          "name": "_newName",
          "type": "string"
        }
      ],
      "name": "changeName",
      "outputs": [],
      "stateMutability": "nonpayable",
      "type": "function"
    },
    {
      "inputs": [
        {
          "internalType": "string",
          "name": "_name",
          "type": "string"
        }
      ],
      "name": "createRandomZombie",
      "outputs": [],
      "stateMutability": "nonpayable",
      "type": "function"
    },
    {
      "inputs": [
        {
          "internalType": "uint256",
          "name": "_zombieId",
          "type": "uint256"
        },
        {
          "internalType": "uint256",
          "name": "_kittyId",
          "type": "uint256"
        }
      ],
      "name": "feedOnKitty",
      "outputs": [],
      "stateMutability": "nonpayable",
      "type": "function"
    },
    {
      "inputs": [],
      "name": "owner",
      "outputs": [
        {
          "internalType": "address",
          "name": "",
          "type": "address"
        }
      ],
      "stateMutability": "view",
      "type": "function"
    },
    {
      "inputs": [],
      "name": "renounceOwnership",
      "outputs": [],
      "stateMutability": "nonpayable",
      "type": "function"
    },
    {
      "inputs": [
        {
          "internalType": "address",
          "name": "_address",
          "type": "address"
        }
      ],
      "name": "setKittyContractAddress",
      "outputs": [],
      "stateMutability": "nonpayable",
      "type": "function"
    },
    {
      "inputs": [
        {
          "internalType": "address",
          "name": "newOwner",
          "type": "address"
        }
      ],
      "name": "transferOwnership",
      "outputs": [],
      "stateMutability": "nonpayable",
      "type": "function"
    },
    {
      "inputs": [
        {
          "internalType": "uint256",
          "name": "",
          "type": "uint256"
        }
      ],
      "name": "zombieToOwner",
      "outputs": [
        {
          "internalType": "address",
          "name": "",
          "type": "address"
        }
      ],
      "stateMutability": "view",
      "type": "function"
    },
    {
      "inputs": [
        {
          "internalType": "uint256",
          "name": "",
          "type": "uint256"
        }
      ],
      "name": "zombies",
      "outputs": [
        {
          "internalType": "string",
          "name": "name",
          "type": "string"
        },
        {
          "internalType": "uint256",
          "name": "dna",
          "type": "uint256"
        },
        {
          "internalType": "uint32",
          "name": "level",
          "type": "uint32"
        },
        {
          "internalType": "uint32",
          "name": "readyTime",
          "type": "uint32"
        }
      ],
      "stateMutability": "view",
      "type": "function"
    }
  ],
  "bytecode": "0x60806040526010600155600154600a0a6002556201518060035534801561002557600080fd5b5060006100366100d960201b60201c565b9050806000806101000a81548173ffffffffffffffffffffffffffffffffffffffff021916908373ffffffffffffffffffffffffffffffffffffffff1602179055508073ffffffffffffffffffffffffffffffffffffffff16600073ffffffffffffffffffffffffffffffffffffffff167f8be0079c531659141344cd1fd0a4f28419497f9722a3daafe3b4186f6b6457e060405160405180910390a3506100e1565b600033905090565b6113fb806100f06000396000f3fe608060405234801561001057600080fd5b506004361061009e5760003560e01c8063715018a611610066578063715018a6146102775780637bff0a01146102815780638da5cb5b1461033c578063c39cbef114610370578063f2fde38b146103f35761009e565b806317a7f4cc146100a35780632052465e146100db578063528b7b8f146101a35780635f4623f1146101fb5780635faf28801461023f575b600080fd5b6100d9600480360360408110156100b957600080fd5b810190808035906020019092919080359060200190929190505050610437565b005b610107600480360360208110156100f157600080fd5b81019080803590602001909291905050506105c2565b60405180806020018581526020018463ffffffff1681526020018363ffffffff168152602001828103825286818151815260200191508051906020019080838360005b8381101561016557808201518184015260208101905061014a565b50505050905090810190601f1680156101925780820380516001836020036101000a031916815260200191505b509550505050505060405180910390f35b6101cf600480360360208110156101b957600080fd5b81019080803590602001909291905050506106b7565b604051808273ffffffffffffffffffffffffffffffffffffffff16815260200191505060405180910390f35b61023d6004803603602081101561021157600080fd5b81019080803573ffffffffffffffffffffffffffffffffffffffff1690602001909291905050506106ea565b005b6102756004803603604081101561025557600080fd5b8101908080359060200190929190803590602001909291905050506107dd565b005b61027f6108b5565b005b61033a6004803603602081101561029757600080fd5b81019080803590602001906401000000008111156102b457600080fd5b8201836020820111156102c657600080fd5b803590602001918460018302840111640100000000831117156102e857600080fd5b91908080601f016020809104026020016040519081016040528093929190818152602001838380828437600081840152601f19601f820116905080830192505050505050509192919290505050610a22565b005b610344610a89565b604051808273ffffffffffffffffffffffffffffffffffffffff16815260200191505060405180910390f35b6103f16004803603604081101561038657600080fd5b8101908080359060200190929190803590602001906401000000008111156103ad57600080fd5b8201836020820111156103bf57600080fd5b803590602001918460018302840111640100000000831117156103e157600080fd5b9091929391929390505050610ab2565b005b6104356004803603602081101561040957600080fd5b81019080803573ffffffffffffffffffffffffffffffffffffffff169060200190929190505050610b96565b005b6000600760009054906101000a900473ffffffffffffffffffffffffffffffffffffffff1673ffffffffffffffffffffffffffffffffffffffff1663e98b7f4d836040518263ffffffff1660e01b8152600401808281526020019150506101406040518083038186803b1580156104ad57600080fd5b505afa1580156104c1573d6000803e3d6000fd5b505050506040513d6101408110156104d857600080fd5b8101908080519060200190929190805190602001909291908051906020019092919080519060200190929190805190602001909291908051906020019092919080519060200190929190805190602001909291908051906020019092919080519060200190929190505050909192939495969798509091929394959697509091929394959650909192939495509091929394509091929350909192509091509050809150506105bd83826040518060400160405280600581526020017f6b69747479000000000000000000000000000000000000000000000000000000815250610d88565b505050565b600481815481106105cf57fe5b9060005260206000209060030201600091509050806000018054600181600116156101000203166002900480601f01602080910402602001604051908101604052809291908181526020018280546001816001161561010002031660029004801561067b5780601f106106505761010080835404028352916020019161067b565b820191906000526020600020905b81548152906001019060200180831161065e57829003601f168201915b5050505050908060010154908060020160009054906101000a900463ffffffff16908060020160049054906101000a900463ffffffff16905084565b60056020528060005260406000206000915054906101000a900473ffffffffffffffffffffffffffffffffffffffff1681565b6106f2610f68565b73ffffffffffffffffffffffffffffffffffffffff16610710610a89565b73ffffffffffffffffffffffffffffffffffffffff1614610799576040517f08c379a00000000000000000000000000000000000000000000000000000000081526004018080602001828103825260208152602001807f4f776e61626c653a2063616c6c6572206973206e6f7420746865206f776e657281525060200191505060405180910390fd5b80600760006101000a81548173ffffffffffffffffffffffffffffffffffffffff021916908373ffffffffffffffffffffffffffffffffffffffff16021790555050565b60148281600482815481106107ee57fe5b906000526020600020906003020160020160009054906101000a900463ffffffff1663ffffffff16101561082157600080fd5b6005600085815260200190815260200160002060009054906101000a900473ffffffffffffffffffffffffffffffffffffffff1673ffffffffffffffffffffffffffffffffffffffff163373ffffffffffffffffffffffffffffffffffffffff161461088c57600080fd5b826004858154811061089a57fe5b90600052602060002090600302016001018190555050505050565b6108bd610f68565b73ffffffffffffffffffffffffffffffffffffffff166108db610a89565b73ffffffffffffffffffffffffffffffffffffffff1614610964576040517f08c379a00000000000000000000000000000000000000000000000000000000081526004018080602001828103825260208152602001807f4f776e61626c653a2063616c6c6572206973206e6f7420746865206f776e657281525060200191505060405180910390fd5b600073ffffffffffffffffffffffffffffffffffffffff1660008054906101000a900473ffffffffffffffffffffffffffffffffffffffff1673ffffffffffffffffffffffffffffffffffffffff167f8be0079c531659141344cd1fd0a4f28419497f9722a3daafe3b4186f6b6457e060405160405180910390a360008060006101000a81548173ffffffffffffffffffffffffffffffffffffffff021916908373ffffffffffffffffffffffffffffffffffffffff160217905550565b6000600660003373ffffffffffffffffffffffffffffffffffffffff1673ffffffffffffffffffffffffffffffffffffffff1681526020019081526020016000205414610a6e57600080fd5b6000610a7982610f70565b9050610a858282610ffe565b5050565b60008060009054906101000a900473ffffffffffffffffffffffffffffffffffffffff16905090565b6002838160048281548110610ac357fe5b906000526020600020906003020160020160009054906101000a900463ffffffff1663ffffffff161015610af657600080fd5b6005600086815260200190815260200160002060009054906101000a900473ffffffffffffffffffffffffffffffffffffffff1673ffffffffffffffffffffffffffffffffffffffff163373ffffffffffffffffffffffffffffffffffffffff1614610b6157600080fd5b838360048781548110610b7057fe5b90600052602060002090600302016000019190610b8e929190611282565b505050505050565b610b9e610f68565b73ffffffffffffffffffffffffffffffffffffffff16610bbc610a89565b73ffffffffffffffffffffffffffffffffffffffff1614610c45576040517f08c379a00000000000000000000000000000000000000000000000000000000081526004018080602001828103825260208152602001807f4f776e61626c653a2063616c6c6572206973206e6f7420746865206f776e657281525060200191505060405180910390fd5b600073ffffffffffffffffffffffffffffffffffffffff168173ffffffffffffffffffffffffffffffffffffffff161415610ccb576040517f08c379a00000000000000000000000000000000000000000000000000000000081526004018080602001828103825260268152602001806113a06026913960400191505060405180910390fd5b8073ffffffffffffffffffffffffffffffffffffffff1660008054906101000a900473ffffffffffffffffffffffffffffffffffffffff1673ffffffffffffffffffffffffffffffffffffffff167f8be0079c531659141344cd1fd0a4f28419497f9722a3daafe3b4186f6b6457e060405160405180910390a3806000806101000a81548173ffffffffffffffffffffffffffffffffffffffff021916908373ffffffffffffffffffffffffffffffffffffffff16021790555050565b6005600084815260200190815260200160002060009054906101000a900473ffffffffffffffffffffffffffffffffffffffff1673ffffffffffffffffffffffffffffffffffffffff163373ffffffffffffffffffffffffffffffffffffffff1614610df357600080fd5b600060048481548110610e0257fe5b90600052602060002090600302019050610e1b81611231565b610e2457600080fd5b6002548381610e2f57fe5b069250600060028483600101540181610e4457fe5b04905060405160200180807f6b69747479000000000000000000000000000000000000000000000000000000815250600501905060405160208183030381529060405280519060200120836040516020018082805190602001908083835b60208310610ec55780518252602082019150602081019050602083039250610ea2565b6001836020036101000a038019825116818451168082178552505050505050905001915050604051602081830303815290604052805190602001201415610f1957606360648281610f1257fe5b0682030190505b610f586040518060400160405280600681526020017f4e6f4e616d65000000000000000000000000000000000000000000000000000081525082610ffe565b610f6182611258565b5050505050565b600033905090565b600080826040516020018082805190602001908083835b60208310610faa5780518252602082019150602081019050602083039250610f87565b6001836020036101000a0380198251168184511680821785525050505050509050019150506040516020818303038152906040528051906020012060001c90506002548181610ff557fe5b06915050919050565b60046040518060800160405280848152602001838152602001600163ffffffff168152602001600354420163ffffffff1681525090806001815401808255809150506001900390600052602060002090600302016000909190919091506000820151816000019080519060200190611077929190611302565b506020820151816001015560408201518160020160006101000a81548163ffffffff021916908363ffffffff16021790555060608201518160020160046101000a81548163ffffffff021916908363ffffffff160217905550505060006001600480549050039050336005600083815260200190815260200160002060006101000a81548173ffffffffffffffffffffffffffffffffffffffff021916908373ffffffffffffffffffffffffffffffffffffffff160217905550600660003373ffffffffffffffffffffffffffffffffffffffff1673ffffffffffffffffffffffffffffffffffffffff168152602001908152602001600020600081548092919060010191905055507f88f026aacbbecc90c18411df4b1185fd8d9be2470f1962f192bf84a27d0704b78184846040518084815260200180602001838152602001828103825284818151815260200191508051906020019080838360005b838110156111f05780820151818401526020810190506111d5565b50505050905090810190601f16801561121d5780820380516001836020036101000a031916815260200191505b5094505050505060405180910390a1505050565b6000428260020160049054906101000a900463ffffffff1663ffffffff1611159050919050565b60035442018160020160046101000a81548163ffffffff021916908363ffffffff16021790555050565b828054600181600116156101000203166002900490600052602060002090601f016020900481019282601f106112c357803560ff19168380011785556112f1565b828001600101855582156112f1579182015b828111156112f05782358255916020019190600101906112d5565b5b5090506112fe9190611382565b5090565b828054600181600116156101000203166002900490600052602060002090601f016020900481019282601f1061134357805160ff1916838001178555611371565b82800160010185558215611371579182015b82811115611370578251825591602001919060010190611355565b5b50905061137e9190611382565b5090565b5b8082111561139b576000816000905550600101611383565b509056fe4f776e61626c653a206e6577206f776e657220697320746865207a65726f2061646472657373a26469706673582212203833ad219b64071de38c1d505b0f6f81141d025ad62fccf19faf4604359a849964736f6c63430007030033",
  "linkReferences": {},
  "deployedLinkReferences": {}
}