{
  "_format": "hh-sol-artifact-1",
  "contractName": "ZombieFeeding",
  "sourceName": "contracts/ZombieFeeding.sol",
  "abi": [
    {
      "anonymous": false,
      "inputs": [
        {
          "indexed": false,
          "internalType": "uint256",
          "name": "zombieId",
          "type": "uint256"
        },
        {
          "indexed": false,
          "internalType": "string",
          "name": "name",
          "type": "string"
        },
        {
          "indexed": false,
          "internalType": "uint256",
          "name": "dna",
          "type": "uint256"
        }
      ],
      "name": "NewZombie",
      "type": "event"
    },
    {
      "inputs": [
        {
          "internalType": "string",
          "name": "_name",
          "type": "string"
        }
      ],
      "name": "createRandomZombie",
      "outputs": [],
      "stateMutability": "nonpayable",
      "type": "function"
    },
    {
      "inputs": [
        {
          "internalType": "uint256",
          "name": "_zombieId",
          "type": "uint256"
        },
        {
          "internalType": "uint256",
          "name": "_targetDna",
          "type": "uint256"
        }
      ],
      "name": "feedAndMultiply",
      "outputs": [],
      "stateMutability": "nonpayable",
      "type": "function"
    },
    {
      "inputs": [
        {
          "internalType": "uint256",
          "name": "",
          "type": "uint256"
        }
      ],
      "name": "zombieToOwner",
      "outputs": [
        {
          "internalType": "address",
          "name": "",
          "type": "address"
        }
      ],
      "stateMutability": "view",
      "type": "function"
    },
    {
      "inputs": [
        {
          "internalType": "uint256",
          "name": "",
          "type": "uint256"
        }
      ],
      "name": "zombies",
      "outputs": [
        {
          "internalType": "string",
          "name": "name",
          "type": "string"
        },
        {
          "internalType": "uint256",
          "name": "dna",
          "type": "uint256"
        }
      ],
      "stateMutability": "view",
      "type": "function"
    }
  ],
  "bytecode": "0x60806040526010600055600054600a0a60015534801561001e57600080fd5b506107c88061002e6000396000f3fe608060405234801561001057600080fd5b506004361061004c5760003560e01c80630dedffb8146100515780632052465e14610089578063528b7b8f146101375780637bff0a011461018f575b600080fd5b6100876004803603604081101561006757600080fd5b81019080803590602001909291908035906020019092919050505061024a565b005b6100b56004803603602081101561009f57600080fd5b810190808035906020019092919050505061033c565b6040518080602001838152602001828103825284818151815260200191508051906020019080838360005b838110156100fb5780820151818401526020810190506100e0565b50505050905090810190601f1680156101285780820380516001836020036101000a031916815260200191505b50935050505060405180910390f35b6101636004803603602081101561014d57600080fd5b8101908080359060200190929190505050610405565b604051808273ffffffffffffffffffffffffffffffffffffffff16815260200191505060405180910390f35b610248600480360360208110156101a557600080fd5b81019080803590602001906401000000008111156101c257600080fd5b8201836020820111156101d457600080fd5b803590602001918460018302840111640100000000831117156101f657600080fd5b91908080601f016020809104026020016040519081016040528093929190818152602001838380828437600081840152601f19601f820116905080830192505050505050509192919290505050610438565b005b6003600083815260200190815260200160002060009054906101000a900473ffffffffffffffffffffffffffffffffffffffff1673ffffffffffffffffffffffffffffffffffffffff163373ffffffffffffffffffffffffffffffffffffffff16146102b557600080fd5b6000600283815481106102c457fe5b9060005260206000209060020201905060015482816102df57fe5b0691506000600283836001015401816102f457fe5b0490506103366040518060400160405280600681526020017f4e6f4e616d6500000000000000000000000000000000000000000000000000008152508261049f565b50505050565b6002818154811061034957fe5b9060005260206000209060020201600091509050806000018054600181600116156101000203166002900480601f0160208091040260200160405190810160405280929190818152602001828054600181600116156101000203166002900480156103f55780601f106103ca576101008083540402835291602001916103f5565b820191906000526020600020905b8154815290600101906020018083116103d857829003601f168201915b5050505050908060010154905082565b60036020528060005260406000206000915054906101000a900473ffffffffffffffffffffffffffffffffffffffff1681565b6000600460003373ffffffffffffffffffffffffffffffffffffffff1673ffffffffffffffffffffffffffffffffffffffff168152602001908152602001600020541461048457600080fd5b600061048f82610667565b905061049b828261049f565b5050565b6002604051806040016040528084815260200183815250908060018154018082558091505060019003906000526020600020906002020160009091909190915060008201518160000190805190602001906104fb9291906106f5565b5060208201518160010155505060006001600280549050039050336003600083815260200190815260200160002060006101000a81548173ffffffffffffffffffffffffffffffffffffffff021916908373ffffffffffffffffffffffffffffffffffffffff160217905550600460003373ffffffffffffffffffffffffffffffffffffffff1673ffffffffffffffffffffffffffffffffffffffff168152602001908152602001600020600081548092919060010191905055507f88f026aacbbecc90c18411df4b1185fd8d9be2470f1962f192bf84a27d0704b78184846040518084815260200180602001838152602001828103825284818151815260200191508051906020019080838360005b8381101561062657808201518184015260208101905061060b565b50505050905090810190601f1680156106535780820380516001836020036101000a031916815260200191505b5094505050505060405180910390a1505050565b600080826040516020018082805190602001908083835b602083106106a1578051825260208201915060208101905060208303925061067e565b6001836020036101000a0380198251168184511680821785525050505050509050019150506040516020818303038152906040528051906020012060001c905060015481816106ec57fe5b06915050919050565b828054600181600116156101000203166002900490600052602060002090601f016020900481019282601f1061073657805160ff1916838001178555610764565b82800160010185558215610764579182015b82811115610763578251825591602001919060010190610748565b5b5090506107719190610775565b5090565b5b8082111561078e576000816000905550600101610776565b509056fea2646970667358221220c2c99a5d754d99cbfebc3f3f40315fd07953df337e0e1f81327fe137f5ed0edc64736f6c63430007030033",
  "linkReferences": {},
  "deployedLinkReferences": {}
}